{
  "_format": "hh-sol-artifact-1",
  "contractName": "Counter",
  "sourceName": "contracts/Counter.sol",
  "abi": [
    {
      "inputs": [],
      "stateMutability": "nonpayable",
      "type": "constructor"
    },
    {
      "inputs": [],
      "name": "count",
      "outputs": [],
      "stateMutability": "nonpayable",
      "type": "function"
    },
    {
      "inputs": [],
      "name": "counter",
      "outputs": [
        {
          "internalType": "uint256",
          "name": "",
          "type": "uint256"
        }
      ],
      "stateMutability": "view",
      "type": "function"
    },
    {
      "inputs": [
        {
          "internalType": "uint256",
          "name": "x",
          "type": "uint256"
        }
      ],
      "name": "set",
      "outputs": [],
      "stateMutability": "nonpayable",
      "type": "function"
    }
  ],
  "bytecode": "0x608060405234801561001057600080fd5b5060008081905550610202806100276000396000f3fe608060405234801561001057600080fd5b50600436106100415760003560e01c806306661abd1461004657806360fe47b11461005057806361bc221a1461006c575b600080fd5b61004e61008a565b005b61006a600480360381019061006591906100d3565b6100a1565b005b6100746100b8565b604051610081919061010b565b60405180910390f35b60016000546100999190610126565b600081905550565b806000546100af9190610126565b60008190555050565b60005481565b6000813590506100cd816101b5565b92915050565b6000602082840312156100e557600080fd5b60006100f3848285016100be565b91505092915050565b6101058161017c565b82525050565b600060208201905061012060008301846100fc565b92915050565b60006101318261017c565b915061013c8361017c565b9250827fffffffffffffffffffffffffffffffffffffffffffffffffffffffffffffffff0382111561017157610170610186565b5b828201905092915050565b6000819050919050565b7f4e487b7100000000000000000000000000000000000000000000000000000000600052601160045260246000fd5b6101be8161017c565b81146101c957600080fd5b5056fea2646970667358221220c24b423a36dcbe0e558ce0ac3dcb50bc339555300eda09c6183f04df25cb50c564736f6c63430008040033",
  "linkReferences": {},
  "deployedLinkReferences": {}
}